{
  "contractName": "LctPrice",
  "abi": [
    {
      "inputs": [],
      "stateMutability": "nonpayable",
      "type": "constructor"
    },
    {
      "anonymous": false,
      "inputs": [
        {
          "indexed": true,
          "internalType": "address",
          "name": "previousOwner",
          "type": "address"
        },
        {
          "indexed": true,
          "internalType": "address",
          "name": "newOwner",
          "type": "address"
        }
      ],
      "name": "OwnershipTransferred",
      "type": "event"
    },
    {
      "inputs": [],
      "name": "ltcPriceAdmin",
      "outputs": [
        {
          "internalType": "address",
          "name": "",
          "type": "address"
        }
      ],
      "stateMutability": "view",
      "type": "function",
      "constant": true
    },
    {
      "inputs": [],
      "name": "owner",
      "outputs": [
        {
          "internalType": "address",
          "name": "",
          "type": "address"
        }
      ],
      "stateMutability": "view",
      "type": "function",
      "constant": true
    },
    {
      "inputs": [],
      "name": "renounceOwnership",
      "outputs": [],
      "stateMutability": "nonpayable",
      "type": "function"
    },
    {
      "inputs": [],
      "name": "staticTokenPrice",
      "outputs": [
        {
          "internalType": "int256",
          "name": "",
          "type": "int256"
        }
      ],
      "stateMutability": "view",
      "type": "function",
      "constant": true
    },
    {
      "inputs": [],
      "name": "tokenIntegratedWithChainlink",
      "outputs": [
        {
          "internalType": "bool",
          "name": "",
          "type": "bool"
        }
      ],
      "stateMutability": "view",
      "type": "function",
      "constant": true
    },
    {
      "inputs": [
        {
          "internalType": "address",
          "name": "newOwner",
          "type": "address"
        }
      ],
      "name": "transferOwnership",
      "outputs": [],
      "stateMutability": "nonpayable",
      "type": "function"
    },
    {
      "inputs": [
        {
          "internalType": "address",
          "name": "_adminAddr",
          "type": "address"
        }
      ],
      "name": "handleSetLtcAdmin",
      "outputs": [],
      "stateMutability": "nonpayable",
      "type": "function"
    },
    {
      "inputs": [
        {
          "internalType": "bool",
          "name": "_status",
          "type": "bool"
        }
      ],
      "name": "handleTokenIntegratedWithChainlink",
      "outputs": [],
      "stateMutability": "nonpayable",
      "type": "function"
    },
    {
      "inputs": [
        {
          "internalType": "address",
          "name": "_tokenAddress",
          "type": "address"
        }
      ],
      "name": "handleSetAgregatorAddress",
      "outputs": [],
      "stateMutability": "nonpayable",
      "type": "function"
    },
    {
      "inputs": [
        {
          "internalType": "int256",
          "name": "_livePrice",
          "type": "int256"
        }
      ],
      "name": "handleSetTokenPrice",
      "outputs": [
        {
          "internalType": "int256",
          "name": "",
          "type": "int256"
        }
      ],
      "stateMutability": "nonpayable",
      "type": "function"
    },
    {
      "inputs": [],
      "name": "getTokenPrice",
      "outputs": [
        {
          "internalType": "int256",
          "name": "",
          "type": "int256"
        }
      ],
      "stateMutability": "view",
      "type": "function",
      "constant": true
    }
  ],
  "bytecode": "0x6080604052652a1766f5d00060035534801561001a57600080fd5b5061003761002c6100d260201b60201c565b6100da60201b60201c565b73d0d5e3db44de05e9f294bb0a3beeaf030de24ada600160006101000a81548173ffffffffffffffffffffffffffffffffffffffff021916908373ffffffffffffffffffffffffffffffffffffffff16021790555033600260006101000a81548173ffffffffffffffffffffffffffffffffffffffff021916908373ffffffffffffffffffffffffffffffffffffffff16021790555061019e565b600033905090565b60008060009054906101000a900473ffffffffffffffffffffffffffffffffffffffff169050816000806101000a81548173ffffffffffffffffffffffffffffffffffffffff021916908373ffffffffffffffffffffffffffffffffffffffff1602179055508173ffffffffffffffffffffffffffffffffffffffff168173ffffffffffffffffffffffffffffffffffffffff167f8be0079c531659141344cd1fd0a4f28419497f9722a3daafe3b4186f6b6457e060405160405180910390a35050565b610e17806101ad6000396000f3fe608060405234801561001057600080fd5b50600436106100a95760003560e01c8063b784aa2111610071578063b784aa2114610140578063d0139bf71461015e578063dd600e601461017c578063f2fde38b14610198578063f9588d3e146101b4578063fc931277146101d0576100a9565b80632622666b146100ae5780634b94f50e146100ca578063715018a6146100e85780638da5cb5b146100f2578063925d400c14610110575b600080fd5b6100c860048036038101906100c391906108fe565b6101ee565b005b6100d2610287565b6040516100df9190610a93565b60405180910390f35b6100f06102c2565b005b6100fa61034a565b6040516101079190610a5d565b60405180910390f35b61012a60048036038101906101259190610927565b610373565b6040516101379190610a93565b60405180910390f35b610148610414565b6040516101559190610a5d565b60405180910390f35b61016661043a565b6040516101739190610a93565b60405180910390f35b610196600480360381019061019191906108d5565b610440565b005b6101b260048036038101906101ad91906108d5565b610500565b005b6101ce60048036038101906101c991906108d5565b6105f8565b005b6101d86106b8565b6040516101e59190610a78565b60405180910390f35b6101f66106cb565b73ffffffffffffffffffffffffffffffffffffffff1661021461034a565b73ffffffffffffffffffffffffffffffffffffffff161461026a576040517f08c379a000000000000000000000000000000000000000000000000000000000815260040161026190610aee565b60405180910390fd5b80600260146101000a81548160ff02191690831515021790555050565b60008060011515600260149054906101000a900460ff16151514156102b5576102ae6106d3565b90506102bb565b60035490505b8091505090565b6102ca6106cb565b73ffffffffffffffffffffffffffffffffffffffff166102e861034a565b73ffffffffffffffffffffffffffffffffffffffff161461033e576040517f08c379a000000000000000000000000000000000000000000000000000000000815260040161033590610aee565b60405180910390fd5b6103486000610793565b565b60008060009054906101000a900473ffffffffffffffffffffffffffffffffffffffff16905090565b6000600260009054906101000a900473ffffffffffffffffffffffffffffffffffffffff1673ffffffffffffffffffffffffffffffffffffffff163373ffffffffffffffffffffffffffffffffffffffff1614610405576040517f08c379a00000000000000000000000000000000000000000000000000000000081526004016103fc90610ace565b60405180910390fd5b81600381905550819050919050565b600260009054906101000a900473ffffffffffffffffffffffffffffffffffffffff1681565b60035481565b6104486106cb565b73ffffffffffffffffffffffffffffffffffffffff1661046661034a565b73ffffffffffffffffffffffffffffffffffffffff16146104bc576040517f08c379a00000000000000000000000000000000000000000000000000000000081526004016104b390610aee565b60405180910390fd5b80600260006101000a81548173ffffffffffffffffffffffffffffffffffffffff021916908373ffffffffffffffffffffffffffffffffffffffff16021790555050565b6105086106cb565b73ffffffffffffffffffffffffffffffffffffffff1661052661034a565b73ffffffffffffffffffffffffffffffffffffffff161461057c576040517f08c379a000000000000000000000000000000000000000000000000000000000815260040161057390610aee565b60405180910390fd5b600073ffffffffffffffffffffffffffffffffffffffff168173ffffffffffffffffffffffffffffffffffffffff1614156105ec576040517f08c379a00000000000000000000000000000000000000000000000000000000081526004016105e390610aae565b60405180910390fd5b6105f581610793565b50565b6106006106cb565b73ffffffffffffffffffffffffffffffffffffffff1661061e61034a565b73ffffffffffffffffffffffffffffffffffffffff1614610674576040517f08c379a000000000000000000000000000000000000000000000000000000000815260040161066b90610aee565b60405180910390fd5b80600160006101000a81548173ffffffffffffffffffffffffffffffffffffffff021916908373ffffffffffffffffffffffffffffffffffffffff16021790555050565b600260149054906101000a900460ff1681565b600033905090565b600080600160009054906101000a900473ffffffffffffffffffffffffffffffffffffffff1673ffffffffffffffffffffffffffffffffffffffff1663feaf968c6040518163ffffffff1660e01b815260040160a06040518083038186803b15801561073e57600080fd5b505afa158015610752573d6000803e3d6000fd5b505050506040513d601f19601f820116820180604052508101906107769190610950565b5050509150506402540be4008161078d9190610b1f565b91505090565b60008060009054906101000a900473ffffffffffffffffffffffffffffffffffffffff169050816000806101000a81548173ffffffffffffffffffffffffffffffffffffffff021916908373ffffffffffffffffffffffffffffffffffffffff1602179055508173ffffffffffffffffffffffffffffffffffffffff168173ffffffffffffffffffffffffffffffffffffffff167f8be0079c531659141344cd1fd0a4f28419497f9722a3daafe3b4186f6b6457e060405160405180910390a35050565b60008135905061086681610d6e565b92915050565b60008135905061087b81610d85565b92915050565b60008135905061089081610d9c565b92915050565b6000815190506108a581610d9c565b92915050565b6000815190506108ba81610db3565b92915050565b6000815190506108cf81610dca565b92915050565b6000602082840312156108e757600080fd5b60006108f584828501610857565b91505092915050565b60006020828403121561091057600080fd5b600061091e8482850161086c565b91505092915050565b60006020828403121561093957600080fd5b600061094784828501610881565b91505092915050565b600080600080600060a0868803121561096857600080fd5b6000610976888289016108c0565b955050602061098788828901610896565b9450506040610998888289016108ab565b93505060606109a9888289016108ab565b92505060806109ba888289016108c0565b9150509295509295909350565b6109d081610c36565b82525050565b6109df81610c48565b82525050565b6109ee81610c54565b82525050565b6000610a01602683610b0e565b9150610a0c82610ccd565b604082019050919050565b6000610a24601183610b0e565b9150610a2f82610d1c565b602082019050919050565b6000610a47602083610b0e565b9150610a5282610d45565b602082019050919050565b6000602082019050610a7260008301846109c7565b92915050565b6000602082019050610a8d60008301846109d6565b92915050565b6000602082019050610aa860008301846109e5565b92915050565b60006020820190508181036000830152610ac7816109f4565b9050919050565b60006020820190508181036000830152610ae781610a17565b9050919050565b60006020820190508181036000830152610b0781610a3a565b9050919050565b600082825260208201905092915050565b6000610b2a82610c54565b9150610b3583610c54565b9250827f7fffffffffffffffffffffffffffffffffffffffffffffffffffffffffffffff0482116000841360008413161615610b7457610b73610c9e565b5b817f80000000000000000000000000000000000000000000000000000000000000000583126000841260008413161615610bb157610bb0610c9e565b5b827f80000000000000000000000000000000000000000000000000000000000000000582126000841360008412161615610bee57610bed610c9e565b5b827f7fffffffffffffffffffffffffffffffffffffffffffffffffffffffffffffff0582126000841260008412161615610c2b57610c2a610c9e565b5b828202905092915050565b6000610c4182610c5e565b9050919050565b60008115159050919050565b6000819050919050565b600073ffffffffffffffffffffffffffffffffffffffff82169050919050565b6000819050919050565b600069ffffffffffffffffffff82169050919050565b7f4e487b7100000000000000000000000000000000000000000000000000000000600052601160045260246000fd5b7f4f776e61626c653a206e6577206f776e657220697320746865207a65726f206160008201527f6464726573730000000000000000000000000000000000000000000000000000602082015250565b7f596f7520617265206e6f742061646d696e000000000000000000000000000000600082015250565b7f4f776e61626c653a2063616c6c6572206973206e6f7420746865206f776e6572600082015250565b610d7781610c36565b8114610d8257600080fd5b50565b610d8e81610c48565b8114610d9957600080fd5b50565b610da581610c54565b8114610db057600080fd5b50565b610dbc81610c7e565b8114610dc757600080fd5b50565b610dd381610c88565b8114610dde57600080fd5b5056fea2646970667358221220ac1dc0f1d8dfd373931c07d013427d3e042eedca2ea5b7b977fbdcd0b8dc3ea464736f6c63430008030033",
  "immutableReferences": {},
  "source": "// SPDX-License-Identifier: MIT\npragma solidity ^0.8.3;\n\nimport \"@chainlink/contracts/src/v0.8/interfaces/AggregatorV3Interface.sol\";\nimport \"@openzeppelin/contracts/access/Ownable.sol\";\n\ncontract LctPrice is Ownable {\n    AggregatorV3Interface internal priceFeed;\n    address public ltcPriceAdmin;\n    bool public tokenIntegratedWithChainlink;\n    int public staticTokenPrice = 46280000000000; // 0.00004628\n\n    constructor() {\n        priceFeed = AggregatorV3Interface(\n            0xd0D5e3DB44DE05E9F294BB0a3bEEaF030DE24Ada\n        );\n        ltcPriceAdmin = msg.sender;\n    }\n\n    function handleSetLtcAdmin(address _adminAddr) public onlyOwner {\n        ltcPriceAdmin = _adminAddr;\n    }\n\n    function handleTokenIntegratedWithChainlink(bool _status) public onlyOwner {\n        tokenIntegratedWithChainlink = _status;\n    }\n\n    /**\n     * Returns the latest price.\n     */\n\n    function handleSetAgregatorAddress(address _tokenAddress) public onlyOwner {\n        priceFeed = AggregatorV3Interface(_tokenAddress);\n    }\n\n    function getLatestPriceFromAgregator() internal view returns (int) {\n        // prettier-ignore\n        (\n            /* uint80 roundID */,\n            int price,\n            /*uint startedAt*/,\n            /*uint timeStamp*/,\n            /*uint80 answeredInRound*/\n        ) = priceFeed.latestRoundData();\n        return price * 10000000000;\n    }\n\n    function handleSetTokenPrice(int _livePrice) public returns (int) {\n        require(msg.sender == ltcPriceAdmin, \"You are not admin\");\n        staticTokenPrice = _livePrice;\n        return _livePrice;\n    }\n\n    function getTokenPrice() public view returns (int) {\n        int tokenPrice;\n        if (tokenIntegratedWithChainlink == true) {\n            tokenPrice = getLatestPriceFromAgregator();\n        } else {\n            tokenPrice = staticTokenPrice;\n        }\n        return tokenPrice;\n    }\n}\n",
  "sourcePath": "/home/abdullah/Desktop/Abdur_Rehman-LCT/LCT_SIMPLE_CONTRACT (tokenPrice)/contracts/LctPrice.sol",
  "compiler": {
    "name": "solc",
    "version": "0.8.3+commit.8d00100c.Emscripten.clang"
  },
  "schemaVersion": "3.4.10",
  "updatedAt": "2023-05-05T11:00:43.517Z",
  "networkType": "ethereum",
  "devdoc": {
    "kind": "dev",
    "methods": {
      "owner()": {
        "details": "Returns the address of the current owner."
      },
      "renounceOwnership()": {
        "details": "Leaves the contract without owner. It will not be possible to call `onlyOwner` functions anymore. Can only be called by the current owner. NOTE: Renouncing ownership will leave the contract without an owner, thereby removing any functionality that is only available to the owner."
      },
      "transferOwnership(address)": {
        "details": "Transfers ownership of the contract to a new account (`newOwner`). Can only be called by the current owner."
      }
    },
    "version": 1
  },
  "userdoc": {
    "kind": "user",
    "methods": {
      "handleSetAgregatorAddress(address)": {
        "notice": "Returns the latest price."
      }
    },
    "version": 1
  }
}